:100000000C9434000C943E000C943E000C943E0082
:100010000C943E000C9440000C943E000C943E0066
:100020000C943E000C943E000C943E000C943E0058
:100030000C943E000C943E000C943E000C943E0048
:100040000C943E000C943E000C943E000C943E0038
:100050000C943E000C943E000C943E000C943E0028
:100060000C943E000C943E0011241FBECFEFD8E04C
:10007000DEBFCDBF0E944E010C9455010C940000D0
:100080001F920F9200905F000F9211242F933F93C5
:100090008F939F93EF93FF93CF93DF93CDB7DEB70B
:1000A00083E290E023E230E0F90120812062FC014C
:1000B00020830000DF91CF91FF91EF919F918F916D
:1000C0003F912F910F9000925F000F901F90189515
:1000D000CF93DF93CDB7DEB7F89484E290E0FC01D4
:1000E000808184E290E0FC0110828AE290E0FC01D1
:1000F00080818AE290E0FC01108284E290E024E2B8
:1001000030E0F90120812062FC0120838AE290E046
:100110002AE230E0F90120812460FC0120838AE298
:1001200090E02AE230E0F90120812860FC01208380
:100130008AE290E02AE230E0F90120812061FC01AE
:10014000208389E290E029E230E0F90120812460F7
:10015000FC01208389E290E029E230E0F90120816E
:100160002068FC01208380E890E0FC01808180E829
:1001700090E0FC01108281E890E0FC01808181E840
:1001800090E0FC01108288E890E028E03DE3FC016B
:100190003183208381E890E021E830E0F90120817B
:1001A0002860FC01208381E890E021E830E0F9013B
:1001B00020812160FC01208381E890E021E830E08B
:1001C000F90120812460FC0120838FE690E02FE676
:1001D00030E0F90120812260FC01208380EB90E077
:1001E000FC01808180EB90E0FC01108281EB90E0CB
:1001F000FC01808181EB90E0FC01108284EB90E0B7
:1002000028ECFC01208380EB90E020EB30E0F9014A
:1002100020812360FC01208381EB90E021EB30E022
:10022000F90120812460FC01208380EB90E020EB29
:1002300030E0F90120812062FC01208381EB90E015
:1002400021EB30E0F90120812F7EFC0120838DE637
:1002500090E0FC0180818DE690E0FC01108288E650
:1002600090E0FC01808188E690E0FC01108288E645
:1002700090E028E630E0F90120812460FC01208331
:100280008DE690E02DE630E0F90120812068FC0148
:10029000208378940000DF91CF910895CF93DF936E
:0E02A000CDB7DEB70E946800FFCFF894FFCF05
:00000001FF
